:0200000480007A
:10007400130101FA232E1104232C8104232A910451
:100084002328210523263105232441052322510554
:1000940023206105232E7103232C8103232A91033A
:1000A4002328A1032326B10337150000130505A057
:1000B40073104530732500301365850073100530C7
:1000C400370500C08325050603264506939545009C
:1000D400B385C50037860000130606E0B385C50066
:1000E40013910501B71100C093810180832740015A
:1000F400373D63C09397270023AAF1C223A00700CA
:10010400B73C63C093074DCD232AF10093874C1865
:1001140037BC68C02326F100938781C4232CF100E7
:1001240093074CCD232EF100B7B75DC0938747E901
:10013400370A00C0B70C00C02328F1009307CA4750
:100144002324F10083A70C0083A74C0003AD8C008B
:1001540003A50C1083A54C1003A68C1037B468C0FB
:10016400B75400C0B70A00C0130C1000130444FCB9
:10017400938901C4938444C5938A4A4763088D03D1
:10018400930720006302FD1463060D0623A00C02EE
:1001940083A70C0083A74C0003AD8C0003A50C10AF
:1001A40083A54C1003A68C10E31C8DFD83A7C1C34B
:1001B400E38E87FD03A70900630AE516931725005C
:1001C4003387A70093174700B387E7409397270027
:1001D40003270101B387B70093972700B307F700FC
:1001E40083A70700E39407FAEF00802B23A00C02F7
:1001F4006FF01FFA832BC10023AC01C2B7B7B4BDA3
:10020400930D0000138BC7E313093001138A0BB558
:1002140013050B0093054006EF00906A93171B002B
:10022400B387670193974700B38767419397370074
:10023400B387670193973700B387670193974700A4
:100244006368A90023208A01130D1D00930D10007B
:10025400130A4A00338B6741E31C7AFB930B0A4B66
:10026400E3968BFA63840D0023ACA1C303278101B9
:10027400832641019307A01223A0F900232007003D
:1002840023A0060023A0040023A40C1023A20C1016
:1002940023A00C1023A20C0023A48C0123A2F90098
:1002A4008327C1012322070023A8040023A407985D
:1002B40023A2040023A4040023A6040023A00C000A
:1002C40023A00C026FF0DFEC93071600E38007EC29
:1002D40023A0AA0023A2BA00E38A87EB8327810024
:1002E40013173600938607003307F700931725008A
:1002F4003385A70093174500B387A740939727003A
:10030400B387B70093976700B387F40003A587000A
:1003140083A5C7009386860023ACA6FE23AEB6FE53
:10032400E396E6FC23A00C026FF09FE603A74900C6
:10033400E396E5E89386C1C323A8DC0223AAFC0262
:1003440023AE81C39307F0FFE30AF6E68327810017
:100354001317360093860A003307F700938E0500BF
:100364001308050093172800338E070193174E00D6
:10037400B387C74193972700B387D7019397670043
:1003840023A0060123A2D601B387F4009386860036
:1003940003A8870083AEC700E396E6FC6FF01FE274
:1003A4009307000063880700171500001305050A6A
:1003B4006F10400F67800000130101FF93050000D8
:1003C400232481002326110013040500EF00D075B7
:1003D40003A581C28327C50363840700E780070060
:1003E40013050400EF10C0169701004093814141AA
:1003F400138501C317A66840130606723306A64088
:1004040093050000EF009064171500001305C5095B
:10041400630805001715000013054503EF10800855
:10042400EF009059032501009305410013060000D5
:10043400EFF01FC46FF05FF8130101FF2324810064
:10044400138401C383470400232611006392070227
:1004540093070000638A0700171500001305C51FE2
:1004640097000000E7000000930710002300F40049
:100474008320C1000324810013010101678000006F
:1004840093070000638C07009385C1C5171500000E
:100494001305851C17030000670000006780000037
:1004A400931825003387A80093174700B387E740C4
:1004B400939727003387F500B7B65DC0130101FF9A
:1004C40013172700938646E923268100370800C0C6
:1004D4003387E6002328E802232A080213031500C1
:1004E4001307B012636067386374B71C1307B01244
:1004F400636AA71A13831500636A670C3388A8001C
:100504001317480033070741131727003307670001
:10051400373863C0131E2700130848CD3308C801B9
:10052400032808006314080A373858C0130848051C
:100534003308C801032E0800631A0E08938E01C401
:1005440003AE0E0003AF4E00B75E00C01317670082
:10055400938E4EC5B38EEE0093021000130716005F
:1005640023205800930F070023A26E0033086F4026
:1005740023A8EE0023A0AE003307AE4023A4AE00B0
:1005840023A6BE00B70E00C023A4FE119353F74167
:10059400135FF841330EF30023A26E1033C7E30058
:1005A40013132E0033480F0123A0AE1033836600CB
:1005B400330777403308E84123A26E00330707016D
:1005C40023A45E003307F70123A0EE001383F5FF95
:1005D4001307B0126368670CB388A8001397480028
:1005E400330717411317270033076700373863C0F1
:1005F40093182700130848CD33081801032808006E
:100604006312080A373858C013084805330818011C
:100614008328080063980808138E01C483280E00F9
:10062400832E4E00375E00C0130E4EC513176700AD
:100634003307EE0013061600130E10002328C7001C
:100644002326B7002320A700232267002324A70022
:100654002320C8013387A840370800C0B3856E4003
:100664002324C810135FF74193DEF541B308F30068
:100674002322681093982800B347EF00B3C5BE0047
:100684002320A810B3861601B387E741B385D5416B
:100694002322D800B387B7002324C8013386C700B8
:1006A4002320C8000324C100130101016780000056
:1006B40013172300330E670013174E003307C74187
:1006C400131727003307B700373E63C0130E4ECD10
:1006D400131F2700B30EEE0183AE0E0063940E0ABF
:1006E400B73E58C0938E4E05B38EEE0103AF0E0095
:1006F400631A0F08938F01C403AF0F0083A24F0046
:10070400B75F00C013176700938F4FC5B38FEF0017
:10071400130410001307160023A8EF0023A06F0092
:1007240023A2BF0023A4AF0023A6BF0023A08E00F2
:1007340093030700938EC71233076F40338FB24081
:10074400232478109352F741935FFF41B38EBE0088
:100754002322B810939E2E0033C7E20033CFEF015B
:1007640023206810330757403383D601330FFF41EA
:10077400232268003307E701232488003307770026
:100784002320E8001308F5FF1307B012938E47EDFA
:10079400E36E07D51317280033030701131743002B
:1007A40033076740131727003307B700131F2700C9
:1007B400330EEE0103230E00E31A03D2373358C07D
:1007C400130343053303E301032E0300E3100ED2A6
:1007D400138F01C4032E0F00832F4F00375F00C017
:1007E40013176700130F4FC5330FEF009303100067
:1007F40013071600232073009302070023200F0120
:100804003383BF402328EF002322BF0033070E4168
:100814002324AF002326BF00370F00C023245F101A
:10082400935FF741135EF341B38ED5012322BF10CA
:10083400939E2E0033C7EF0033436E0023200F1125
:100844003307F7413388D6013303C34123220F0111
:100854003307670023247F00330757002320EF006A
:100864006FF0DFC81308F5FFE36207C9E360B7C898
:10087400373E63C0938E47ED130E4ECD6FF09FF15C
:10088400B70700C023A0070267800000B70700C0B5
:1008940023A8A70623AAB70667800000B70700C0ED
:1008A40023A8A70223AAB70267800000B70700C0E5
:1008B40023A2C70023A4A70023A0B70067800000D9
:1008C400B70700C023A0D71023A2C70023A4A70002
:1008D40023A0B70067800000B70700C023A2E71079
:1008E40023A0D71023A2C70023A4A70023A0B700E6
:1008F40067800000370800C02324F8102322E81082
:100904002320D8102322C8002324A8002320B800C1
:1009140067800000B70800C023A6081123A4F810BC
:1009240023A2E81023A0D81023A2C80023A4A8005F
:1009340023A0B80067800000370300C023281311E8
:10094400232603112324F3102322E3102320D3109E
:100954002322C3002324A3002320B30067800000C4
:10096400B70700C003A7070023A0E50003A74700BB
:100974002320E60083A787002320F500678000007A
:10098400B70700C003A7070023A0E50003A747009B
:100994002320E60003A787002320E50083A7071090
:1009A40023A0F60067800000B70700C003A8070073
:1009B40023A0050183A547002320B60003A68700D2
:1009C4002320C50003A6071023A0C60083A7471051
:1009D4002320F70067800000370800C08328080040
:1009E40023A01501832548002320B6000326880090
:1009F4002320C5000326081023A0C6008326481020
:100A04002320D7000327881023A0E7006780000075
:100A1400B70800C003A3080023A0650083A548000D
:100A24002320B60003A688002320C50003A60810CF
:100A340023A0C60083A648102320D70003A788104C
:100A440023A0E70083A7C8102320F80067800000D4
:100A5400370300C0032E030023A0C50183254300F0
:100A64002320B600032683002320C5000326031099
:100A740023A0C600832643102320D7000327831016
:100A840023A0E7008327C3102320F8008327031142
:100A940023A0F80067800000B70700C003A8070080
:100AA40023A0050183A547002320B60003A68700E1
:100AB4002320C50003A6071023A0C60083A7471060
:100AC4002320F7006780000067800000B707803F9D
:100AD4003385A7001355150067800000138701C4F0
:100AE40083270700130101FE232A91008324470072
:100AF4003385A7409387050093050500232E110035
:100B0400232C8100B384F440EF0040549385040007
:100B14001304050013850400EF0040533305A400BB
:100B2400EF000040B707803F3385A7001355150039
:100B3400EF0040388320C101032481018324410153
:100B44001301010267800000930705001307B01228
:100B540013050000636EF702636CB7021395270058
:100B64003305F50093174500B387A74093972700F3
:100B7400B385B700B73763C0938747CD93952500F6
:100B8400B385B70003A50500133515006780000081
:100B940067800000138701C48327070003274700E9
:100BA400130101FF3385A740B305B74013D7F541BF
:100BB4009357F541B345B70033C5A700B385E54066
:100BC4003305F5403385A50013010101678000005A
:100BD400930717006394070067800000B70500C0FF
:100BE4009385454723A0C50023A2D5009305100093
:100BF400E384B7FEB70700C09387C74713173700CE
:100C0400375500C03387E700130545C59315260003
:100C1400B385C500139645003306B6401316260067
:100C2400B306D60093966600B306D50003A68600E5
:100C340083A6C6009387870023ACC7FE23AED7FEE6
:100C4400E316F7FC6780000003A3C1C393081000F8
:100C540013050600938506001306070063021305B7
:100C6400938701C403A70700630EA7029317250007
:100C7400B386A70093974600B387D740939727007E
:100C8400B387B70037B85DC093972700130848E9C6
:100C9400B307F80083A70700639407006FF05F8031
:100CA4006780000083A74700E392D7FCB70700C022
:100CB4001387C1C323A8E70223AA670223AE11C383
:100CC4009307F0FFE304F6FAB70600C0938646479D
:100CD4001313360093878600375E00C03303F30096
:100CE4001307050093880500130E4EC593172700BC
:100CF4003388E70093174800B38707419397270089
:100D0400B38717019397670023A0E60023A2160177
:100D1400B307FE009386860003A7870083A8C70055
:100D2400E316D3FC6FF09FF493171500B387A70065
:100D340093974700B387A74093973700B387A700DB
:100D440093973700B387A700939747003385A7404D
:100D540067800000130101FD232A5101232861014A
:100D6400B78A0500373B63C0130B4BCD23267101B3
:100D740023248101938A0A2F37BCB4BD2324810222
:100D84002322910223202103232E3101232C41010C
:100D9400232611022322910123AC01C213040B4B1D
:100DA400B30A5B019309000093040000130CCCE325
:100DB40013093001130A1000930C04B513050C0039
:100DC40093054006EF00C02F93171C00B3878701DB
:100DD40093974700B387874193973700B387870179
:100DE40093973700B3878701939747006368A900F7
:100DF40023A04C019384140093091000938C4C009D
:100E0400338C8741E39C8CFA13840C4BE31654FB1C
:100E14006384090023AC91C2B75700C0938747C5C8
:100E2400138681C4938601C49305A01223200B006A
:100E34002320060023A0B60023A00700370700C024
:100E440023240710232207102320071037850500C9
:100E540023220700330BAB00130510002324A70043
:100E64008320C1020324810223240B982322060039
:100E740023A2B60023A8070023A2070023A4070087
:100E840023A607002320070083244102032901022B
:100E94008329C101032A8101832A4101032B010112
:100EA400832BC100032C8100832C41001301010317
:100EB4006780000037068000135775019307F6FF1B
:100EC4001377F70F9305E007B3F6A7009357F501DF
:100ED40063DCE5009305F009B385F5401385F7FF5E
:100EE4006348B700678000001305000067800000B6
:100EF40013050000E39807FE93055009B3E7C60005
:100F040063D8E5001307A7F63395E7006780000070
:100F1400130560093307E54033D5E7006780000017
:100F2400130101FF2326110023248100630A050411
:100F340013040500EF00001F9307E009B387A740DF
:100F44001307600993060500634CF7041307800038
:100F540013F5F70F6356D700938686FF3314D40036
:100F64001314940013549400131575018320C100C5
:100F740033658500032481001301010167800000AB
:100F84001305000013040000131575018320C1002C
:100F9400336585000324810013010101678000008B
:100FA400130790096350F7021307B50113055000A6
:100FB4003317E4003305D5403337E0003354A4003D
:100FC40033648700130750006342D706370600FCDA
:100FD4001306F6FF937574003377C4006386050225
:100FE4001374F400930540006300B4021307470030
:100FF400B7050004B375B700638805009307F009CB
:101004003377C700B387D7401314670013F5F70F7E
:1010140013549400131575018320C10033658500B2
:101024000324810013010101678000001387B6FFC8
:101034003314E400370600FC1306F6FF93757400BE
:101044003377C400E38205FC6FF09FF913060500B3
:101054001305000093F61500638406003305C500EC
:1010640093D5150013161600E39605FE678000005D
:101074006340050663C6050613860500930505004F
:101084001305F0FF630C060293061000637AB600A2
:101094006358C0001316160093961600E36AB6FE52
:1010A4001305000063E6C500B385C5403365D5006C
:1010B40093D6160013561600E39606FE67800000CA
:1010C40093820000EFF05FFB138505006780020048
:1010D4003305A0406348B000B305B0406FF0DFF9BA
:1010E400B305B04093820000EFF01FF93305A04030
:1010F400678002009382000063CA0500634C050008
:10110400EFF09FF71385050067800200B305B04038
:10111400E35805FE3305A040EFF01FF63305B04059
:1011240067800200B70701006374F5029307F00FAC
:101134001307000263E2A706970700009387C741DD
:101144003385A700034505003305A74067800000E9
:10115400B70700016372F502970700009387C73F42
:10116400135505013385A700034505001307000146
:101174003305A74067800000970700009387C73DA9
:10118400135585013385A700034505001307800027
:101194003305A74067800000970700009387C73B8B
:1011A400135585003385A700034505001307800107
:1011B4003305A74067800000130101FF2324810049
:1011C40023202101171400001304C473171900000D
:1011D40013094973330989402326110023229100FE
:1011E40013592940630E0900930400008327040067
:1011F4009384140013044400E7800700E31899FE65
:10120400171400001304047017190000130909705F
:101214003309894013592940630E090093040000DF
:10122400832704009384140013044400E780070018
:10123400E31899FE8320C100032481008324410024
:101244000329010013010101678000001303F0006A
:1012540013070500637EC3029377F7006390070AC0
:1012640063920508937606FF1376F600B386E600CC
:101274002320B7002322B7002324B7002326B70076
:1012840013070701E366D7FE6314060067800000B6
:10129400B306C3409396260097020000B386560017
:1012A4006780C6002307B700A306B7002306B7006C
:1012B400A305B7002305B700A304B7002304B700B0
:1012C400A303B7002303B700A302B7002302B700A8
:1012D400A301B7002301B700A300B7002300B700A0
:1012E4006780000093F5F50F93968500B3E5D5006C
:1012F40093960501B3E5D5006FF0DFF693962700CA
:1013040097020000B386560093820000E78006FA35
:1013140093800200938707FF3307F7403306F600F4
:10132400E378C3F66FF0DFF3130101FD232C4101D1
:1013340003AA81C22320210303298A14232611022C
:101344002324810223229102232E3101232A5101D5
:1013540023286101232671012324810163000904E8
:10136400130B0500938B0500930A10009309F0FFFB
:10137400832449001384F4FF6342040293942400F9
:10138400B304990063840B0483A744106380770536
:101394001304F4FF9384C4FFE31634FF8320C102D3
:1013A4000324810283244102032901028329C10108
:1013B400032A8101832A4101032B0101832BC100EC
:1013C400032C810013010103678000008327490077
:1013D40083A644009387F7FF638E870423A2040047
:1013E400E38806FA8327891833978A00032C490077
:1013F400B377F70063920702E780060003274900EA
:1014040083278A1463148701E38427F9E38807F8A0
:10141400138907006FF0DFF58327C91883A54408F3
:101424003377F700631C070013050B00E780060001
:101434006FF0DFFC232289006FF09FFA138505000B
:10144400E78006006FF09FFB130101FF2324810056
:10145400971700009387C74B171400001304044B1D
:10146400B3878740232291002326110093D4274079
:10147400638004029387C7FF3384870083270400B3
:101484009384F4FF1304C4FFE7800700E39804FE89
:101494008320C1000324810083244100130101013E
:1014A4006780000093050500930600001306000002
:1014B400130500006F00400003A781C2832787142F
:1014C400638C070403A747001308F001634EE80682
:1014D4001318270063060502338307012324C30876
:1014E40083A88718130610003316E600B3E8C80073
:1014F40023A417192324D310930620006304D502D0
:101504001307170023A2E700B387070123A4B7003A
:1015140013050000678000009307C7142324F71401
:101524006FF05FFA83A6C7181307170023A2E7001A
:1015340033E6C60023A6C718B387070123A4B70060
:1015440013050000678000001305F0FF67800000AA
:041554006F00000024
:101558000001020203030303040404040404040452
:101568000505050505050505050505050505050523
:101578000606060606060606060606060606060603
:1015880006060606060606060606060606060606F3
:1015980007070707070707070707070707070707D3
:1015A80007070707070707070707070707070707C3
:1015B80007070707070707070707070707070707B3
:1015C80007070707070707070707070707070707A3
:1015D8000808080808080808080808080808080883
:1015E8000808080808080808080808080808080873
:1015F8000808080808080808080808080808080863
:101608000808080808080808080808080808080852
:101618000808080808080808080808080808080842
:101628000808080808080808080808080808080832
:101638000808080808080808080808080808080822
:101648000808080808080808080808080808080812
:101658001000000000000000037A5200017C010124
:101668001B0D0200200000001800000030EEFFFFF4
:10167800E003000000600E104C880103DC010AC87A
:10168800440E00440B000000100000003C00000065
:10169800ECF1FFFF0C00000000000000100000004B
:1016A80050000000E4F1FFFF1000000000000000FF
:1016B8001000000064000000E0F1FFFF10000000CF
:1016C800000000001000000078000000DCF1FFFFBF
:1016D8001400000000000000100000008C00000052
:1016E800DCF1FFFF180000000000000010000000FF
:1016F800A0000000E0F1FFFF1C0000000000000057
:1017080010000000B4000000E8F1FFFF2000000016
:101718000000000010000000C8000000F4F1FFFF06
:10172800240000000000000010000000DC000000A1
:1017380004F2FFFF28000000000000001000000075
:10174800F000000018F2FFFF200000000000000079
:10175800100000000401000024F2FFFF2800000030
:1017680000000000100000001801000038F2FFFF20
:101778003000000000000000100000002C010000F4
:1017880054F2FFFF380000000000000010000000C5
:101798004001000078F2FFFF400000000000000058
:1017A8001000000054010000A4F2FFFF48000000F0
:1017B800000000001000000068010000D8F2FFFFE0
:1017C8003000000000000000100000007C01000054
:1017D800F4F2FFFF04000000000000001000000009
:1017E80090010000E4F2FFFF10000000000000007C
:1017F80024000000A4010000E0F2FFFF6C000000DC
:10180800004C0E2044890358810188020234C144E7
:10181800C844C9440E00000010000000CC010000BC
:1018280024F3FFFF4C00000000000000140000003B
:10183800E00100005CF3FFFF3C00000000500E10C8
:10184800680E000010000000F801000080F3FFFFA0
:101858007800000000000000100000000C020000EA
:10186800E4F3FFFFE00000000000000010000000AB
:1018780020020000B0F4FFFF2C0000000000000070
:101888004400000034020000C8F4FFFF60010000BB
:1018980000440E304895079608549709980A6488BA
:1018A8000289039204930594068101990B02CCC125
:1018B80044C864C944D244D344D444D544D644D754
:1018C80044D844D9440E00002C0000007C020000DB
:1018D8009CE7FFFF3003000000440E60748101881C
:1018E8000289039204930594069507960897099828
:0C18F8000A990B9A0C9B0D0000000000E8
:08290400A4030080840400809C
:04290C003C04008007
:02000004C0003A
:1000000000000000EC0200C0540300C0BC0300C0AC
:1000100000000000000000000000000000000000E0
:1000200000000000000000000000000000000000D0
:1000300000000000000000000000000000000000C0
:1000400000000000000000000000000000000000B0
:1000500000000000000000000000000000000000A0
:100060000000000000000000000000000000000090
:100070000000000000000000000000000000000080
:100080000000000000000000000000000000000070
:100090000000000000000000000000000000000060
:1000A000000000000000000001000000000000004F
:1000B0000E33CDAB34126DE6ECDE05000B00000014
:1000C0000000000000000000000000000000000030
:1000D0000000000000000000000000000000000020
:1000E0000000000000000000000000000000000010
:1000F0000000000000000000000000000000000000
:04000005800003EC88
:00000001FF
